:020000040000FA
:0400000007EF00F016
:0A0008004B827DED07F012EF09F0C6
:1006000000496E736972612073657175656E636907
:10061000612E2E2E00207C20566F63652056656E5D
:10062000636575207C0041706572746520656D207E
:100630006A6F67617200207C205061726162656E32
:1006400073207C20004A4F474F2043414E43454C86
:1006500041444F004661736520436F6E636C75695A
:1006600064610042656D2056696E646F20733200CC
:10067000476572616E646F00506572646575000055
:10068000F28EAD683FEC09F0000E0001A36F000E82
:10069000A26F70EC08F0ABEC06F0000E0001B16F39
:1006A000010EB06F95EC0BF0010E366E060E376E34
:1006B00056EC0AF082B25FEF03F061EF03F068EFEF
:1006C00003F0000E0001A36F010EA26F92EF03F082
:1006D00082B46DEF03F06FEF03F076EF03F0000EDE
:1006E0000001A36F020EA26F92EF03F082B67BEFC0
:1006F00003F07DEF03F084EF03F0000E0001A36F21
:10070000030EA26F92EF03F082B089EF03F08BEF3C
:1007100003F092EF03F0000E0001A36F040EA26F2E
:1007200092EF03F082A297EF03F099EF03F0C4EF8A
:1007300003F00001A205A311D8A4A1EF03F0A3EFD9
:1007400003F0C4EF03F0000EA36F000EA26F4AEC9B
:100750000BF0000E366E000E356EB0C037F0B1C033
:1007600038F0AAEC0AF00009D8B4B9EF03F0BBEFF7
:1007700003F0C0EF03F00001B04BB12B48EF04F0E1
:10078000FEEC09F073EF04F082A4C9EF03F0CBEFA5
:1007900003F0F0EF03F0020E0001A219A311D8A498
:1007A000D4EF03F0D6EF03F0F0EF03F0000EA36FE9
:1007B000000EA26F3BEC0BF0000E366E010E356E94
:1007C000B0C037F0B1C038F0AAEC0AF00009D8B4D4
:1007D000ECEF03F0EEEF03F0C0EF03F0BBEF03F03C
:1007E00082A6F5EF03F0F7EF03F01CEF04F0030E21
:1007F0000001A219A311D8A400EF04F002EF04F045
:100800001CEF04F0000EA36F000EA26F2CEC0BF097
:10081000000E366E020E356EB0C037F0B1C038F043
:10082000AAEC0AF00009D8B418EF04F01AEF04F0AB
:10083000C0EF03F0BBEF03F082A021EF04F023EF41
:1008400004F048EF04F0040E0001A219A311D8A48B
:100850002CEF04F02EEF04F048EF04F0000EA36F2D
:10086000000EA26F1DEC0BF0000E366E030E356EFF
:10087000B0C037F0B1C038F0AAEC0AF00009D8B423
:1008800044EF04F046EF04F0C0EF03F0BBEF03F0D9
:100890000001B051B25DB351800AA06FB151800A1E
:1008A000A059D8B056EF04F058EF04F05AEF03F017
:1008B000B24BB32B95EC0BF0540E366E060E376E22
:1008C00056EC0AF0060E0001A16F130EA06FAD0EDC
:1008D000E82EFED7A02FFCD7A12FFAD700D0ADEC81
:1008E0000BF095EC0BF0060E0001B219B311D8A471
:1008F0007CEF04F07EEF04F049EF03F0ADEC0BF079
:10090000000E0001B36F010EB26F8FEC09F03FECE7
:1009100009F049EF03F01200F28EAD6867EC09F0C0
:10092000000E2C6E000E2B6EAAEC08F014EC07F0F3
:10093000000E0001B16F010EB06FA1EC0BF0010EC3
:10094000026E060E036E8EEC0AF082B2AAEF04F07D
:10095000ACEF04F0B2EF04F0000E2C6E010E2B6E23
:10096000D9EF04F082B4B7EF04F0B9EF04F0BFEFB1
:1009700004F0000E2C6E020E2B6ED9EF04F082B63E
:10098000C4EF04F0C6EF04F0CCEF04F0000E2C6EC0
:10099000030E2B6ED9EF04F082B0D1EF04F0D3EF49
:1009A00004F0D9EF04F0000E2C6E040E2B6ED9EF7C
:1009B00004F082A2DEEF04F0E0EF04F00AEF05F0AD
:1009C0002B042C10D8A4E7EF04F0E9EF04F00AEFB1
:1009D00005F0000E2C6E000E2B6E86EC0BF0000E58
:1009E000026E000E016EB0C003F0B1C004F0C4ECA2
:1009F0000AF00009D8B4FFEF04F001EF05F006EFAC
:100A000005F00001B04BB12B8BEF05F01CEC0AF0A8
:100A1000B4EF05F082A40FEF05F011EF05F035EF0C
:100A200005F0020E2B182C10D8A419EF05F01BEFBF
:100A300005F035EF05F0000E2C6E000E2B6E77ECF6
:100A40000BF0000E026E010E016EB0C003F0B1C0DB
:100A500004F0C4EC0AF00009D8B431EF05F033EF2C
:100A600005F006EF05F001EF05F082A63AEF05F07C
:100A70003CEF05F060EF05F0030E2B182C10D8A406
:100A800044EF05F046EF05F060EF05F0000E2C6E28
:100A9000000E2B6E68EC0BF0000E026E020E016E63
:100AA000B0C003F0B1C004F0C4EC0AF00009D8B43F
:100AB0005CEF05F05EEF05F006EF05F001EF05F0E5
:100AC00082A065EF05F067EF05F08BEF05F0040EEF
:100AD0002B182C10D8A46FEF05F071EF05F08BEFF9
:100AE00005F0000E2C6E000E2B6E59EC0BF0000E74
:100AF000026E030E016EB0C003F0B1C004F0C4EC8E
:100B00000AF00009D8B487EF05F089EF05F006EF89
:100B100005F001EF05F00001B051B25DB351800A5C
:100B2000296EB151800A2958D8B099EF05F09BEF92
:100B300005F0A5EF04F0B24BB32BA1EC0BF0540E73
:100B4000026E060E036E8EEC0AF0060E2A6E130E6F
:100B5000296EAE0EE82EFED7292EFCD72A2EFAD704
:100B6000B8EC0BF0A1EC0BF0060E0001B219B311BA
:100B7000D8A4BDEF05F0BFEF05F094EF04F0B8EC9A
:100B80000BF0000E0001B36F010EB26FB6EC09F06E
:100B900067EC09F094EF04F0120041C080F042C00D
:100BA00081F043C082F044C083F045C084F046C069
:100BB00085F047C086F048C087F02D0E0001886F91
:100BC0007F0E896F950E8A6F4C0E8B6F2D0E8C6F7A
:100BD000F40E8D6F510E8E6F580E8F6FD1EC07F0A3
:100BE00080C092F081C093F082C094F083C095F0F1
:100BF00084C096F085C097F086C098F087C099F0C1
:100C0000010E00019225416E000E9321426E000EEE
:100C10009421436E000E9521446E000E9621456E80
:100C2000000E9721466E000E9821476E000E992106
:100C3000486E41C092F042C093F043C094F044C06B
:100C400095F045C096F046C097F047C098F048C070
:100C500099F0320E35EF06F0D890993398339733E8
:100C600096339533943393339233E82E2CEF06F07A
:100C700092C090F094C091F0120041C001F042C0C7
:100C800002F043C003F044C004F045C005F046C084
:100C900006F047C007F048C008F02D0E096E7F0E21
:100CA0000A6E950E0B6E4C0E0C6E2D0E0D6EF40E24
:100CB0000E6E510E0F6E580E106E21EC08F001C032
:100CC0001BF002C01CF003C01DF004C01EF005C0E4
:100CD0001FF006C020F007C021F008C022F0010E6E
:100CE0001B24416E000E1C20426E000E1D20436E20
:100CF000000E1E20446E000E1F20456E000E2020A8
:100D0000466E000E2120476E000E2220486E41C024
:100D10001BF042C01CF043C01DF044C01EF045C093
:100D20001FF046C020F047C021F048C022F0320E2C
:100D3000A3EF06F0D8902232213220321F321E3229
:100D40001D321C321B32E82E9AEF06F01BC019F040
:100D50001DC01AF01200000E3A6E010E396E03EF3C
:100D600007F0030E386E8A0E376E560EE82EFED749
:100D7000372EFCD7382EFAD7D8903934D96E3A347A
:100D8000DA6EA40ED926000EDA22DE50DE10D8A4C8
:100D9000CCEF06F0CEEF06F0D2EF06F04AEC0BF007
:100DA00001EF07F0D8903934D96E3A34DA6EA40ED8
:100DB000D926000EDA22DE04DE10D8A4E2EF06F017
:100DC000E4EF06F0E8EF06F03BEC0BF001EF07F084
:100DD000D8903934D96E3A34DA6EA40ED926000E82
:100DE000DA22020EDE18DE10D8A4F9EF06F0FBEFCF
:100DF00006F0FFEF06F02CEC0BF001EF07F01DEC16
:100E00000BF0394A3A2A39500001B25DB351800AD9
:100E1000376E3A50800A3758D8B011EF07F013EF09
:100E200007F0B1EF06F01200000E066E010E056E1F
:100E30006CEF07F0030E046E8A0E036E560EE82E5A
:100E4000FED7032EFCD7042EFAD7D8900534D96EDE
:100E50000634DA6EA40ED926000EDA22DE50DE1039
:100E6000D8A435EF07F037EF07F03BEF07F086EC3B
:100E70000BF06AEF07F0D8900534D96E0634DA6EBD
:100E8000A40ED926000EDA22DE04DE10D8A44BEF21
:100E900007F04DEF07F051EF07F077EC0BF06AEF3A
:100EA00007F0D8900534D96E0634DA6EA40ED92630
:100EB000000EDA22020EDE18DE10D8A462EF07F070
:100EC00064EF07F068EF07F068EC0BF06AEF07F0EB
:100ED00059EC0BF0054A062A05500001B25DB351EA
:100EE000800A036E0650800A0358D8B07AEF07F0E4
:100EF0007CEF07F01AEF07F012000600D9CF2FF0B1
:100F0000DACF30F0F6CF31F0F7CF32F0F8CF33F060
:100F1000F5CF34F09EAA8FEF07F091EF07F0C3EF03
:100F200007F09E9A020EAE18D8A499EF07F09BEF37
:100F300007F0B7EF07F0000E0001B36F010EB26FBC
:100F4000A1EC0BF0450E026E060E036E8EEC0AF05D
:100F5000060E2E6E130E2D6EAE0EE82EFED72D2E23
:100F6000FCD72E2EFAD78CEC04F0C3EF07F0AE04BA
:100F7000D8A4BDEF07F0BFEF07F0C3EF07F0000EF6
:100F80003E6E010E3D6E34C0F5FF33C0F8FF32C037
:100F9000F7FF31C0F6FF30C0DAFF2FC0D9FF4B9208
:100FA000110020EE35F0070EDE6AE806FDE20001D2
:100FB00080A1DDEF07F0DFEF07F0EFEF07F08851DA
:100FC0003526895136228A5137228B5138228C514D
:100FD00039228D513A228E513B228F513C22D8909A
:100FE000883789378A378B378C378D378E378F37ED
:100FF000D890873386338533843383338233813388
:1010000080338051811182118311841185118611E1
:101010008711D8A40EEF08F010EF08F0D7EF07F013
:1010200035C080F036C081F037C082F038C083F020
:1010300039C084F03AC085F03BC086F03CC087F0F0
:10104000120020EE11F0070EDE6AE806FDE201A0B4
:101050002CEF08F02EEF08F03EEF08F009501126B3
:101060000A5012220B5013220C5014220D5015223C
:101070000E5016220F50172210501822D890093601
:101080000A360B360C360D360E360F361036D89023
:10109000083207320632053204320332023201329C
:1010A000015002100310041005100610071008105C
:1010B000D8A45DEF08F05FEF08F027EF08F011C04B
:1010C00001F012C002F013C003F014C004F015C008
:1010D00005F016C006F017C007F018C008F012009F
:1010E000D75000019B6F9A6BD6509A259C6F000ECB
:1010F0009B219D6F9CC035F09DC036F0DEEC0AF060
:1011000095EC0BF0700E366E060E376E56EC0AF04C
:10111000CDEC05F0030E000190159E6F9F6BD890EB
:10112000B235D96EB335DA6EA40ED926000EDA22A6
:101130009EC0DEFF9FC0DDFF060E00019B6F130EF9
:101140009A6FAD0EE82EFED79A2FFCD79B2FFAD7B9
:1011500000D01200D750246E236AD6502324256E67
:10116000000E2420266E25C001F026C002F0F5EC0A
:101170000AF0A1EC0BF0700E026E060E036E8EEC00
:101180000AF03DEC06F0030E1914276E286AD89079
:101190000001B235D96EB335DA6EA40ED926000E31
:1011A000DA2227C0DEFF28C0DDFF060E246E130EF4
:1011B000236EAE0EE82EFED7232EFCD7242EFAD7B0
:1011C00012008D908D92140E376E7A0EE82EFED797
:1011D000372EFCD7030E836E8D828D92070E376EED
:1011E0007D0EE82EFED7372EFCD700F08D828D9233
:1011F000420EE82EFED700D08D828D92420EE82E50
:10120000FED700D0020E836E8D828D92380EC3EC15
:101210000BF0060EC3EC0BF00C0EC3EC0BF095ECD0
:101220000BF01200CC0EF66E170EF76E000EF86E75
:101230000900F5CFB2F00900F5CFB3F0CA0EF66E93
:10124000170EF76E000EF86E0900F5CF49F0090091
:10125000F5CF4AF000EEA4F00E0EEE6AE806FDE1CE
:1012600000EE3DF00C0EEE6AE806FDE14B904B926D
:10127000000EF86E060EF76E00010CEF0BF095EC09
:101280000BF0260E366E060E376E56EC0AF055EF52
:1012900009F0000E0001B36F010EB26F820E3A6EBC
:1012A000DE0EE82EFED73A2EFCD73D043E10D8A421
:1012B0005CEF09F05EEF09F049EF09F095EC0BF0F7
:1012C000000E3E6E000E3D6E3AEC0AF01200A1ECEC
:1012D0000BF0260E026E060E036E8EEC0AF07DEF0A
:1012E00009F0000E0001B36F010EB26F820E066EA0
:1012F000DE0EE82EFED7062EFCD73D043E10D8A405
:1013000084EF09F086EF09F071EF09F0A1EC0BF022
:10131000000E3E6E000E3D6E72EC0AF01200818EE1
:10132000818C818A818095EC0BF0360E366E060E2C
:10133000376E56EC0AF0280ED7EC0BF0150E366E11
:10134000060E376E56EC0AF0330E396EBB0E386E51
:10135000E00EE82EFED7382EFCD7392EFAD795ECC2
:101360000BF0819E819C819A81901200818E818CEC
:10137000818A8180A1EC0BF0360E026E060E036EA0
:101380008EEC0AF0280EDEEC0BF0150E026E060E47
:10139000036E8EEC0AF0330E056EBB0E046EE00E8B
:1013A000E82EFED7042EFCD7052EFAD7A1EC0BF0C1
:1013B000819E819C819A81901200DF0E926E000EB8
:1013C000936E9468000E956E0C0E966E630ED36E3F
:1013D000D08E9D8A9F8AC00EF26EC30ED56E010E0E
:1013E000C26E0E0EC16E940EC06E240EAC6E900EC8
:1013F000AB6E000EB86E190EAF6E1200818E818C2E
:1014000095EC0BF0780E366E060E376E56EC0AF041
:10141000ADEC0BF0060E3C6E130E3B6EAE0EE82EDE
:10142000FED73B2EFCD73C2EFAD795EC0BF0819ED5
:10143000819C3FEC09F01200818E818CA1EC0BF0B5
:10144000780E026E060E036E8EEC0AF0B8EC0BF00E
:10145000060E086E130E076EAE0EE82EFED7072E90
:10146000FCD7082EFAD7A1EC0BF0819E819C67EC8B
:1014700009F01200818E818C818A818095EC0BF0BD
:10148000630E366E060E376E56EC0AF00B0E396E92
:10149000260E386E5E0EE82EFED7382EFCD7392E7B
:1014A000FAD7819E819C819A819012008D8063EF92
:1014B0000AF036C0F6FF37C0F7FF0800F550C3EC5E
:1014C0000BF0364A372A36C0F6FF37C0F7FF080060
:1014D000F5500009D8A46FEF0AF071EF0AF059EF48
:1014E0000AF01200818E818C818A8180A1EC0BF040
:1014F000630E026E060E036E8EEC0AF00B0E056E86
:10150000260E046E5E0EE82EFED7042EFCD7052EA6
:10151000FAD7819E819C819A819012008D809BEFE9
:101520000AF002C0F6FF03C0F7FF0800F550CDEC4B
:101530000BF0024A032A02C0F6FF03C0F7FF0800BF
:10154000F5500009D8A4A7EF0AF0A9EF0AF091EF2F
:101550000AF01200D8903734D96E3834DA6EA40EFF
:10156000D926000EDA223550DE1809E13650DE1891
:10157000D8B4BDEF0AF0BFEF0AF0C2EF0AF0000ED8
:10158000C3EF0AF0010E1200D8900334D96E043470
:10159000DA6EA40ED926000EDA220150DE1809E117
:1015A0000250DE18D8B4D7EF0AF0D9EF0AF0DCEF1A
:1015B0000AF0000EDDEF0AF0010E1200FF0E376E8A
:1015C000FF0E386E35C039F036C03AF03750392644
:1015D00038503A2239C041F03AC042F0436A446A76
:1015E000456A466A476A486A1200FF0E036EFF0E9C
:1015F000046E01C005F002C006F003500526045039
:10160000062205C041F006C042F0436A446A456ABA
:10161000466A476A486A1200DDEC09F095EC0BF067
:10162000E1EC08F0000E816E000E836E000E846EF9
:10163000898A40EC03F007EF00F08180020E366EDD
:10164000860E356E990EE82EFED7352EFCD7362E37
:10165000FAD700F081901200818A020E366E860E53
:10166000356E990EE82EFED7352EFCD7362EFAD7DA
:1016700000F0819A1200818C020E366E860E356E55
:10168000990EE82EFED7352EFCD7362EFAD700F06D
:10169000819C1200818E020E366E860E356E990E7A
:1016A000E82EFED7352EFCD7362EFAD700F0819ED5
:1016B00012008180020E026E860E016E990EE82ED7
:1016C000FED7012EFCD7022EFAD700F0819012002F
:1016D000818A020E026E860E016E990EE82EFED7EA
:1016E000012EFCD7022EFAD700F0819A1200818CCD
:1016F000020E026E860E016E990EE82EFED7012EA6
:10170000FCD7022EFAD700F0819C1200818E020EC7
:10171000026E860E016E990EE82EFED7012EFCD7C2
:10172000022EFAD700F0819E12008D90010EC3ECBC
:101730000BF0030E366E980EE82EFED7362EFCD731
:1017400012008D90010ECDEC0BF0030E026E980E80
:10175000E82EFED7022EFCD712009EA8B2EF0BF0A7
:10176000B4EF0BF0ADEF0BF00001B205AD6E12005F
:101770009EA8BDEF0BF0BFEF0BF0B8EF0BF0000130
:10178000B205AD6E1200356EC80E00D0E82EFDD742
:1017900035C083FF8D828D921200016EC80E00D07D
:1017A000E82EFDD701C083FF8D828D921200366E28
:1017B0008D903650800FC3EC0BF01200026E8D90AE
:0E17C0000250800FCDEC0BF012000100010072
:020000040020DA
:08000000FFFFFFFFFFFFFFFF00
:020000040030CA
:0E000000FF081F1EFF8181FF0FC00FE00F40A1
:00000001FF
