:020000040000FA
:0400000007EF00F016
:0A0008004B8287ED07F0B7EF09F017
:1006000000496E736972612073657175656E636907
:10061000612E2E2E00207C20566F63652056656E5D
:10062000636575207C0041706572746520656D207E
:100630006A6F67617200207C205061726162656E32
:1006400073207C20004A4F474F2043414E43454C86
:1006500041444F004661736520436F6E636C75695A
:1006600064610042656D2056696E646F20733200CC
:10067000476572616E646F00506572646575000055
:10068000F28EAD681BEC09F0000E0001A96F000EA0
:10069000A86F7AEC08F0B7EC06F0000E0001B76F17
:1006A000010EB66FCAEC0BF0010E366E060E376EF9
:1006B0005FEC0AF082B25FEF03F061EF03F068EFE6
:1006C00003F0000E0001A96F010EA86F92EF03F076
:1006D00082B46DEF03F06FEF03F076EF03F0000EDE
:1006E0000001A96F020EA86F92EF03F082B67BEFB4
:1006F00003F07DEF03F084EF03F0000E0001A96F1B
:10070000030EA86F92EF03F082B089EF03F08BEF36
:1007100003F092EF03F0000E0001A96F040EA86F22
:1007200092EF03F082A297EF03F099EF03F0C4EF8A
:1007300003F00001A805A911D8A4A1EF03F0A3EFCD
:1007400003F0C4EF03F0000EA96F000EA86F7FEC5A
:100750000BF0000E366E000E356EB6C037F0B7C027
:1007600038F0B3EC0AF00009D8B4B9EF03F0BBEFEE
:1007700003F0C0EF03F00001B64BB72B48EF04F0D5
:10078000DCEC09F077EF04F082A4C9EF03F0CBEFC3
:1007900003F0F0EF03F0020E0001A819A911D8A48C
:1007A000D4EF03F0D6EF03F0F0EF03F0000EA96FE3
:1007B000000EA86F70EC0BF0000E366E010E356E59
:1007C000B6C037F0B7C038F0B3EC0AF00009D8B4BF
:1007D000ECEF03F0EEEF03F0C0EF03F0BBEF03F03C
:1007E00082A6F5EF03F0F7EF03F01CEF04F0030E21
:1007F0000001A819A911D8A400EF04F002EF04F039
:100800001CEF04F0000EA96F000EA86F61EC0BF056
:10081000000E366E020E356EB6C037F0B7C038F037
:10082000B3EC0AF00009D8B418EF04F01AEF04F0A2
:10083000C0EF03F0BBEF03F082A021EF04F023EF41
:1008400004F048EF04F0040E0001A819A911D8A47F
:100850002CEF04F02EEF04F048EF04F0000EA96F27
:10086000000EA86F52EC0BF0000E366E030E356EC4
:10087000B6C037F0B7C038F0B3EC0AF00009D8B40E
:1008800044EF04F046EF04F0C0EF03F0BBEF03F0D9
:100890000001B651495C4A50800AA66FB751800AE0
:1008A000A659D8B056EF04F058EF04F05AEF03F011
:1008B000494A4A2ACAEC0BF0540E366E060E376EC1
:1008C0005FEC0AF0060E0001A76F130EA66FAD0EC7
:1008D000E82EFED7A62FFCD7A72FFAD700D0000E00
:1008E000366E010E356E15EC0BF0CAEC0BF0060EF1
:1008F00049184A10D8A47FEF04F081EF04F049EFC3
:1009000003F0000E366E000E356E15EC0BF0000E87
:100910004A6E010E496E42EC09F01BEC09F049EFFA
:1009200003F01200F28EAD6869EC09F0000E2C6E37
:10093000000E2B6EB4EC08F01FEC07F0000E000167
:10094000B76F010EB66FD6EC0BF0010E026E060EFD
:10095000036E97EC0AF082B2B0EF04F0B2EF04F04D
:10096000B8EF04F0000E2C6E010E2B6EDFEF04F0DA
:1009700082B4BDEF04F0BFEF04F0C5EF04F0000E49
:100980002C6E020E2B6EDFEF04F082B6CAEF04F07D
:10099000CCEF04F0D2EF04F0000E2C6E030E2B6EA1
:1009A000DFEF04F082B0D7EF04F0D9EF04F0DFEF0F
:1009B00004F0000E2C6E040E2B6EDFEF04F082A20A
:1009C000E4EF04F0E6EF04F010EF05F02B042C1038
:1009D000D8A4EDEF04F0EFEF04F010EF05F0000EF7
:1009E0002C6E000E2B6EBBEC0BF0000E026E000E98
:1009F000016EB6C003F0B7C004F0CDEC0AF00009F8
:100A0000D8B405EF05F007EF05F00CEF05F0000195
:100A1000B64BB72B91EF05F000EC0AF0BEEF05F0F6
:100A200082A415EF05F017EF05F03BEF05F0020E7D
:100A30002B182C10D8A41FEF05F021EF05F03BEF89
:100A400005F0000E2C6E000E2B6EACEC0BF0000EC1
:100A5000026E010E016EB6C003F0B7C004F0CDEC1B
:100A60000AF00009D8B437EF05F039EF05F00CEFC4
:100A700005F007EF05F082A640EF05F042EF05F024
:100A800066EF05F0030E2B182C10D8A44AEF05F0E2
:100A90004CEF05F066EF05F0000E2C6E000E2B6E8D
:100AA0009DEC0BF0000E026E020E016EB6C003F05C
:100AB000B7C004F0CDEC0AF00009D8B462EF05F03D
:100AC00064EF05F00CEF05F007EF05F082A06BEF87
:100AD00005F06DEF05F091EF05F0040E2B182C10CA
:100AE000D8A475EF05F077EF05F091EF05F0000E53
:100AF0002C6E000E2B6E8EEC0BF0000E026E030EB1
:100B0000016EB6C003F0B7C004F0CDEC0AF00009E6
:100B1000D8B48DEF05F08FEF05F00CEF05F007EF7F
:100B200005F00001B651495C4A50800A296EB75160
:100B3000800A2958D8B09FEF05F0A1EF05F0ABEF80
:100B400004F0494A4A2AD6EC0BF0540E026E060E07
:100B5000036E97EC0AF0060E2A6E130E296EAE0E87
:100B6000E82EFED7292EFCD72A2EFAD7000E026EC9
:100B7000010E016E2BEC0BF0D6EC0BF0060E4918B3
:100B80004A10D8A4C6EF05F0C8EF05F09AEF04F0BC
:100B9000000E026E000E016E2BEC0BF0000E4A6E82
:100BA000010E496E90EC09F069EC09F09AEF04F03F
:100BB00012003FC080F040C081F041C082F042C0CE
:100BC00083F043C084F044C085F045C086F046C041
:100BD00087F02D0E0001886F7F0E896F950E8A6F4A
:100BE0004C0E8B6F2D0E8C6FF40E8D6F510E8E6F21
:100BF000580E8F6FDBEC07F080C098F081C099F041
:100C000082C09AF083C09BF084C09CF085C09DF0A8
:100C100086C09EF087C09FF0010E000198253F6EB0
:100C2000000E9921406E000E9A21416E000E9B210C
:100C3000426E000E9C21436E000E9D21446E000EFC
:100C40009E21456E000E9F21466E3FC098F040C029
:100C500099F041C09AF042C09BF043C09CF044C060
:100C60009DF045C09EF046C09FF0320E41EF06F069
:100C7000D8909F339E339D339C339B339A33993363
:100C80009833E82E38EF06F098C035F09AC036F069
:100C900012003FC001F040C002F041C003F042C06A
:100CA00004F043C005F044C006F045C007F046C05C
:100CB00008F02D0E096E7F0E0A6E950E0B6E4C0E0F
:100CC0000C6E2D0E0D6EF40E0E6E510E0F6E580E34
:100CD000106E2BEC08F001C01BF002C01CF003C02A
:100CE0001DF004C01EF005C01FF006C020F007C0B4
:100CF00021F008C022F0010E1B243F6E000E1C20C4
:100D0000406E000E1D20416E000E1E20426E000E31
:100D10001F20436E000E2020446E000E2120456EE1
:100D2000000E2220466E3FC01BF040C01CF041C0A8
:100D30001DF042C01EF043C01FF044C020F045C06B
:100D400021F046C022F0320EAFEF06F0D8902232EA
:100D5000213220321F321E321D321C321B32E82E4D
:100D6000A6EF06F01BC019F01DC01AF01200000E0D
:100D70003A6E010E396E0FEF07F0030E386E8A0ED1
:100D8000376E560EE82EFED7372EFCD7382EFAD700
:100D9000D8903934D96E3A34DA6EAA0ED926000EBC
:100DA000DA22DE50DE10D8A4D8EF06F0DAEF06F033
:100DB000DEEF06F07FEC0BF00DEF07F0D890393442
:100DC000D96E3A34DA6EAA0ED926000EDA22DE0483
:100DD000DE10D8A4EEEF06F0F0EF06F0F4EF06F028
:100DE00070EC0BF00DEF07F0D8903934D96E3A342F
:100DF000DA6EAA0ED926000EDA22020EDE18DE10F6
:100E0000D8A405EF07F007EF07F00BEF07F061EC50
:100E10000BF00DEF07F052EC0BF0394A3A2A39503B
:100E2000495C4A50800A376E3A50800A3758D8B029
:100E30001CEF07F01EEF07F0BDEF06F01200000EEA
:100E4000066E010E056E77EF07F0030E046E8A0E34
:100E5000036E560EE82EFED7032EFCD7042EFAD7CB
:100E6000D8900534D96E0634DA6EAA0ED926000E53
:100E7000DA22DE50DE10D8A440EF07F042EF07F090
:100E800046EF07F0BBEC0BF075EF07F0D890053498
:100E9000D96E0634DA6EAA0ED926000EDA22DE04E6
:100EA000DE10D8A456EF07F058EF07F05CEF07F01C
:100EB000ACEC0BF075EF07F0D8900534D96E063422
:100EC000DA6EAA0ED926000EDA22020EDE18DE1025
:100ED000D8A46DEF07F06FEF07F073EF07F09DEC0C
:100EE0000BF075EF07F08EEC0BF0054A062A055063
:100EF000495C4A50800A036E0650800A0358D8B0F5
:100F000084EF07F086EF07F025EF07F012000600E8
:100F1000D9CF2FF0DACF30F0F6CF31F0F7CF32F073
:100F2000F8CF33F0F5CF34F09EAA99EF07F09BEF9E
:100F300007F0CDEF07F09E9A320EAE18D8A4A3EFBB
:100F400007F0A5EF07F0C0EF07F0000E4A6E010EA4
:100F5000496ED6EC0BF0450E026E060E036E97EC52
:100F60000AF0060E2E6E130E2D6EAE0EE82EFED774
:100F70002D2EFCD72E2EFAD792EC04F0CDEF07F0F1
:100F8000310EAE18D8A4C7EF07F0C9EF07F0CDEFC8
:100F900007F0000E3C6E010E3B6E34C0F5FF33C00F
:100FA000F8FF32C0F7FF31C0F6FF30C0DAFF2FC0C4
:100FB000D9FF4B92110020EE90F0070EDE6AE80692
:100FC000FDE2000180A1E7EF07F0E9EF07F0F9EF9C
:100FD00007F088519027895191238A5192238B5190
:100FE00093238C5194238D5195238E5196238F51A9
:100FF0009723D890883789378A378B378C378D3746
:101000008E378F37D8908733863385338433833355
:101010008233813380338051811182118311841195
:10102000851186118711D8A418EF08F01AEF08F07F
:10103000E1EF07F090C080F091C081F092C082F0A3
:1010400093C083F094C084F095C085F096C086F07C
:1010500097C087F0120020EE11F0070EDE6AE80656
:10106000FDE201A036EF08F038EF08F048EF08F095
:10107000095011260A5012220B5013220C50142230
:101080000D5015220E5016220F5017221050182204
:10109000D89009360A360B360C360D360E360F361A
:1010A0001036D89008320732063205320432033245
:1010B0000232013201500210031004100510061014
:1010C00007100810D8A467EF08F069EF08F031EFB7
:1010D00008F011C001F012C002F013C003F014C0F8
:1010E00004F015C005F016C006F017C007F018C0D0
:1010F00008F01200D7500001A16FA06BD650A025B8
:10110000A26F000EA121A36FA2C035F0A3C036F0DC
:10111000E7EC0AF0CAEC0BF0700E366E060E376E76
:101120005FEC0AF0D9EC05F0030E35140001A46F52
:10113000A56BD8904934D96E4A34DA6EAA0ED926F6
:10114000000EDA22A4C0DEFFA5C0DDFF060E0001FE
:10115000A16F130EA06FAD0EE82EFED7A02FFCD707
:10116000A12FFAD700D01200D750246E236AD65090
:101170002324256E000E2420266E25C001F026C0F3
:1011800002F0FEEC0AF0D6EC0BF0700E026E060ECA
:10119000036E97EC0AF049EC06F0030E1914276E63
:1011A000286AD8904934D96E4A34DA6EAA0ED92604
:1011B000000EDA2227C0DEFF28C0DDFF060E246EF7
:1011C000130E236EAE0EE82EFED7232EFCD7242E50
:1011D000FAD712008D908D92140E376E7A0EE82E8B
:1011E000FED7372EFCD7030E836E8D828D92070EAD
:1011F000376E7D0EE82EFED7372EFCD700F08D829D
:101200008D92420EE82EFED700D08D828D92420E36
:10121000E82EFED700D0020E836E8D828D92380E9E
:10122000E2EC0BF0060EE2EC0BF00C0EE2EC0BF035
:10123000CAEC0BF01200CAEC0BF0260E366E060E4E
:10124000376E5FEC0AF030EF09F0000E4A6E010EC7
:10125000496E820E3A6EDE0EE82EFED73A2EFCD78D
:101260003B043C10D8A437EF09F039EF09F025EF23
:1012700009F0CAEC0BF0000E3C6E000E3B6E43EC26
:101280000AF01200818E818C818A8180CAEC0BF079
:10129000360E366E060E376E5FEC0AF0280EF6EC50
:1012A0000BF0150E366E060E376E5FEC0AF0330E3D
:1012B000396EBB0E386EE00EE82EFED7382EFCD706
:1012C000392EFAD7CAEC0BF0819E819C819A8190CD
:1012D0001200D6EC0BF0260E026E060E036E97EC93
:1012E0000AF07EEF09F0000E4A6E010E496E820E82
:1012F000066EDE0EE82EFED7062EFCD73B043C1011
:10130000D8A485EF09F087EF09F073EF09F0D6EC68
:101310000BF0000E3C6E000E3B6E7BEC0AF01200F0
:10132000818E818C818A8180D6EC0BF0360E026E24
:10133000060E036E97EC0AF0280EFDEC0BF0150E6E
:10134000026E060E036E97EC0AF0330E056EBB0EAE
:10135000046EE00EE82EFED7042EFCD7052EFAD739
:10136000D6EC0BF0819E819C819A81901200080E30
:10137000F66E180EF76E000EF86E00EE47F010EEE7
:1013800004F00900F5CFEEFFE550E150FAE100EE80
:10139000AAF00E0EEE6AE806FDE100EE3BF00C0E40
:1013A000EE6AE806FDE14B904B92000EF86E060ED9
:1013B000F76E000141EF0BF0818E818CCAEC0BF0CF
:1013C000780E366E060E376E5FEC0AF0000E366E43
:1013D000000E356E15EC0BF0060E0001816F130E3A
:1013E000806FAD0EE82EFED7802FFCD7812FFAD765
:1013F00000D0CAEC0BF0819E819C1BEC09F012001E
:10140000818E818CD6EC0BF0780E026E060E036E88
:1014100097EC0AF0000E026E000E016E2BEC0BF042
:10142000060E086E130E076EAE0EE82EFED7072EC0
:10143000FCD7082EFAD7D6EC0BF0819E819C69EC84
:1014400009F01200DF0E926E000E936E9468000E8B
:10145000956E0C0E966E630ED36ED08E9D8A9F8A0B
:10146000C00EF26EC30ED56E010EC26E0E0EC16EB0
:10147000940EC06E240EAC6E900EAB6E000EB86E65
:10148000190EAF6E1200818E818C818A8180CAEC28
:101490000BF0630E366E060E376E5FEC0AF00B0E25
:1014A000396E260E386E5E0EE82EFED7382EFCD72B
:1014B000392EFAD7819E819C819A819012008D806D
:1014C0006CEF0AF036C0F6FF37C0F7FF0800F550A2
:1014D000E2EC0BF0364A372A36C0F6FF37C0F7FF8A
:1014E0000800F5500009D8A478EF0AF07AEF0AF066
:1014F00062EF0AF01200818E818C818A8180D6ECA5
:101500000BF0630E026E060E036E97EC0AF00B0EE4
:10151000056E260E046E5E0EE82EFED7042EFCD756
:10152000052EFAD7819E819C819A819012008D8030
:10153000A4EF0AF002C0F6FF03C0F7FF0800F55061
:10154000ECEC0BF0024A032A02C0F6FF03C0F7FFDF
:101550000800F5500009D8A4B0EF0AF0B2EF0AF085
:101560009AEF0AF01200D8903734D96E3834DA6E18
:10157000AA0ED926000EDA223550DE1809E13650BF
:10158000DE18D8B4C6EF0AF0C8EF0AF0CBEF0AF0C5
:10159000000ECCEF0AF0010E1200D8900334D96E81
:1015A0000434DA6EAA0ED926000EDA220150DE18B3
:1015B00009E10250DE18D8B4E0EF0AF0E2EF0AF0D9
:1015C000E5EF0AF0000EE6EF0AF0010E1200FF0E42
:1015D000376EFF0E386E35C039F036C03AF03750EE
:1015E000392638503A2239C03FF03AC040F0416ABB
:1015F000426A436A446A456A466A1200FF0E036EF5
:10160000FF0E046E01C005F002C006F0035005266F
:101610000450062205C03FF006C040F0416A426A0D
:10162000436A446A456A466A12009EA81AEF0BF0A4
:101630001CEF0BF015EF0BF035043610D8A423EF98
:101640000BF025EF0BF029EF0BF04904AD6E2AEFFC
:101650000BF0AD6812009EA830EF0BF032EF0BF0EC
:101660002BEF0BF001040210D8A439EF0BF03BEF85
:101670000BF03FEF0BF04904AD6E40EF0BF0AD689F
:10168000120022EC0AF0CAEC0BF0EAEC08F0000EB3
:10169000816E000E836E000E846E898A40EC03F02A
:1016A00007EF00F08180020E366E860E356E990EC1
:1016B000E82EFED7352EFCD7362EFAD700F08190D3
:1016C0001200818A020E366E860E356E990EE82E55
:1016D000FED7352EFCD7362EFAD700F0819A1200AD
:1016E000818C020E366E860E356E990EE82EFED770
:1016F000352EFCD7362EFAD700F0819C1200818E51
:10170000020E366E860E356E990EE82EFED7352EF9
:10171000FCD7362EFAD700F0819E12008180020E8F
:10172000026E860E016E990EE82EFED7012EFCD7B2
:10173000022EFAD700F081901200818A020E026E0A
:10174000860E016E990EE82EFED7012EFCD7022ED2
:10175000FAD700F0819A1200818C020E026E860E7A
:10176000016E990EE82EFED7012EFCD7022EFAD775
:1017700000F0819C1200818E020E026E860E016EB8
:10178000990EE82EFED7012EFCD7022EFAD700F0D4
:10179000819E12008D90010EE2EC0BF0030E366E6E
:1017A000980EE82EFED7362EFCD712008D90010E33
:1017B000ECEC0BF0030E026E980EE82EFED7022E14
:1017C000FCD71200356EC80E00D0E82EFDD735C00C
:1017D00083FF8D828D921200016EC80E00D0E82E1C
:1017E000FDD701C083FF8D828D921200366E8D90E1
:1017F0003650800FE2EC0BF01200026E8D9002501A
:0C180000800FECEC0BF012000100010066
:020000040020DA
:08000000FFFFFFFFFFFFFFFF00
:020000040030CA
:0E000000FF081F1EFF8181FF0FC00FE00F40A1
:00000001FF
