:020000040000FA
:0400000007EF00F016
:0A0008004D8206ED08F0E7EF08F066
:10060000003F065B4F666D7D077F67777C395E79BB
:100610007141706572746520656D206A6F676172E3
:10062000004661736520436F6E636C756964610099
:10063000416775617264616E646F2E2E2E00426593
:100640006D2056696E646F20733200506172616272
:10065000656E7300476572616E646F005065726409
:1006600065750000F28E14EC09F0000E0001C96FF0
:10067000000EC86FD9EC09F047EC08F095EC06F0D5
:10068000000E0001A96F010EA86F4FEC0BF0300EA9
:10069000346E060E356EF5EC09F082B252EF03F0BF
:1006A00054EF03F05BEF03F0000E0001C96F010E81
:1006B000C86F85EF03F082B460EF03F062EF03F0E0
:1006C00069EF03F0000E0001C96F020EC86F85EFDD
:1006D00003F082B66EEF03F070EF03F077EF03F0F4
:1006E000000E0001C96F030EC86F85EF03F082B0E2
:1006F0007CEF03F07EEF03F085EF03F0000E0001C6
:10070000C96F040EC86F85EF03F082A28AEF03F071
:100710008CEF03F0B7EF03F00001C805C911D8A4AE
:1007200094EF03F096EF03F0B7EF03F0000EC96FFC
:10073000000EC86F04EC0BF0000E346E000E336E2A
:10074000A8C035F0A9C036F065EC0AF00009D8B4AD
:10075000ACEF03F0AEEF03F0B3EF03F00001A84BF2
:10076000A92B3BEF04F0BDEC09F064EF04F082A488
:10077000BCEF03F0BEEF03F0E3EF03F0020E000165
:10078000C819C911D8A4C7EF03F0C9EF03F0E3EF0C
:1007900003F0000EC96F000EC86FF5EC0AF0000EF2
:1007A000346E010E336EA8C035F0A9C036F065EC8A
:1007B0000AF00009D8B4DFEF03F0E1EF03F0B3EF84
:1007C00003F0AEEF03F082A6E8EF03F0EAEF03F0E8
:1007D0000FEF04F0030E0001C819C911D8A4F3EFFC
:1007E00003F0F5EF03F00FEF04F0000EC96F000EF9
:1007F000C86FE6EC0AF0000E346E020E336EA8C02D
:1008000035F0A9C036F065EC0AF00009D8B40BEF5A
:1008100004F00DEF04F0B3EF03F0AEEF03F082A0AD
:1008200014EF04F016EF04F03BEF04F0040E0001A7
:10083000C819C911D8A41FEF04F021EF04F03BEF51
:1008400004F0000EC96F000EC86FD7EC0AF0000E5E
:10085000346E030E336EA8C035F0A9C036F065ECD7
:100860000AF00009D8B437EF04F039EF04F0B3EF21
:1008700003F0AEEF03F00001A851CA5DCB51800A2E
:10088000C66FA951800AC659D8B049EF04F04BEFA2
:1008900004F04DEF03F0CA4BCB2B4FEC0BF0210EC5
:1008A000346E060E356EF5EC09F0060E0001C76FCA
:1008B000130EC66FAD0EE82EFED7C62FFCD7C72F7E
:1008C000FAD700D04FEC0BF0140E0001CA19CB116F
:1008D000D8A46DEF04F06FEF04F03CEF03F0000ECE
:1008E000CB6F010ECA6F81EC09F014EC09F03CEFFC
:1008F00003F01200F28E3AEC09F0000E2C6E000E9E
:100900002B6E2DEC0AF07FEC08F0FEEC06F0000EEA
:100910000001A96F010EA86F5BEC0BF0300E026EA8
:10092000060E036E49EC0AF082B299EF04F09BEFD9
:1009300004F0A1EF04F0000E2C6E010E2B6EC8EF38
:1009400004F082B4A6EF04F0A8EF04F0AEEF04F0D8
:10095000000E2C6E020E2B6EC8EF04F082B6B3EFC1
:1009600004F0B5EF04F0BBEF04F0000E2C6E030EA4
:100970002B6EC8EF04F082B0C0EF04F0C2EF04F0B9
:10098000C8EF04F0000E2C6E040E2B6EC8EF04F0BE
:1009900082A2CDEF04F0CFEF04F0F9EF04F02B04C6
:1009A0002C10D8A4D6EF04F0D8EF04F0F9EF04F03F
:1009B000000E2C6E000E2B6E40EC0BF0000E026E43
:1009C000000E016EA8C003F0A9C004F07FEC0AF08D
:1009D0000009D8B4EEEF04F0F0EF04F0F5EF04F006
:1009E0000001A84BA92B7AEF05F011EC0AF0A1EF5A
:1009F00005F082A4FEEF04F000EF05F024EF05F00F
:100A0000020E2B182C10D8A408EF05F00AEF05F001
:100A100024EF05F0000E2C6E000E2B6E31EC0BF067
:100A2000000E026E010E016EA8C003F0A9C004F012
:100A30007FEC0AF00009D8B420EF05F022EF05F0B2
:100A4000F5EF04F0F0EF04F082A629EF05F02BEFAC
:100A500005F04FEF05F0030E2B182C10D8A433EF40
:100A600005F035EF05F04FEF05F0000E2C6E000E8F
:100A70002B6E22EC0BF0000E026E020E016EA8C06F
:100A800003F0A9C004F07FEC0AF00009D8B44BEFE2
:100A900005F04DEF05F0F5EF04F0F0EF04F082A063
:100AA00054EF05F056EF05F07AEF05F0040E2B1821
:100AB0002C10D8A45EEF05F060EF05F07AEF05F09A
:100AC000000E2C6E000E2B6E13EC0BF0000E026E5F
:100AD000030E016EA8C003F0A9C004F07FEC0AF079
:100AE0000009D8B476EF05F078EF05F0F5EF04F0E3
:100AF000F0EF04F00001A851CA5DCB51800A296EC5
:100B0000A951800A2958D8B088EF05F08AEF05F07E
:100B100094EF04F0CA4BCB2B5BEC0BF0210E026E72
:100B2000060E036E49EC0AF0060E2A6E130E296EAD
:100B3000AE0EE82EFED7292EFCD72A2EFAD75BEC74
:100B40000BF0140E0001CA19CB11D8A4AAEF05F0BE
:100B5000ACEF05F083EF04F0000ECB6F010ECA6F0F
:100B60009FEC09F03AEC09F083EF04F0120043C067
:100B7000AAF044C0ABF045C0ACF046C0ADF047C0F1
:100B8000AEF048C0AFF049C0B0F04AC0B1F02D0E91
:100B90000001B26F7F0EB36F950EB46F4C0EB56F40
:100BA0002D0EB66FF40EB76F510EB86F580EB96FA9
:100BB00067EC07F0AAC0BAF0ABC0BBF0ACC0BCF0A9
:100BC000ADC0BDF0AEC0BEF0AFC0BFF0B0C0C0F0B1
:100BD000B1C0C1F0010E0001BA25436E000EBB2169
:100BE000446E000EBC21456E000EBD21466E000E07
:100BF000BE21476E000EBF21486E000EC021496E17
:100C0000000EC1214A6E43C0BAF044C0BBF045C0DB
:100C1000BCF046C0BDF047C0BEF048C0BFF049C000
:100C2000C0F04AC0C1F0320E1FEF06F0D890C133B9
:100C3000C033BF33BE33BD33BC33BB33BA33E82E0E
:100C400016EF06F0BAC03BF0BCC03CF0120043C047
:100C500001F044C002F045C003F046C004F047C0B4
:100C600005F048C006F049C007F04AC008F02D0E54
:100C7000096E7F0E0A6E950E0B6E4C0E0C6E2D0ECD
:100C80000D6EF40E0E6E510E0F6E580E106EB7EC08
:100C900007F001C01BF002C01CF003C01DF004C02F
:100CA0001EF005C01FF006C020F007C021F008C0EC
:100CB00022F0010E1B24436E000E1C20446E000E19
:100CC0001D20456E000E1E20466E000E1F20476E32
:100CD000000E2020486E000E2120496E000E2220BA
:100CE0004A6E43C01BF044C01CF045C01DF046C016
:100CF0001EF047C01FF048C020F049C021F04AC094
:100D000022F0320E8DEF06F0D890223221322032BE
:100D10001F321E321D321C321B32E82E84EF06F0C9
:100D20001BC019F01DC01AF01200000E386E010E23
:100D3000376EEDEF06F0030E366E8A0E356E560EE8
:100D4000E82EFED7352EFCD7362EFAD7D89037347A
:100D5000D96E3834DA6E800ED926000EDA22DE50D3
:100D6000DE10D8A4B6EF06F0B8EF06F0BCEF06F040
:100D700004EC0BF0EBEF06F0D8903734D96E383432
:100D8000DA6E800ED926000EDA22DE04DE10D8A438
:100D9000CCEF06F0CEEF06F0D2EF06F0F5EC0AF05D
:100DA000EBEF06F0D8903734D96E3834DA6E800E17
:100DB000D926000EDA22020EDE18DE10D8A4E3EFE8
:100DC00006F0E5EF06F0E9EF06F0E6EC0AF0EBEFEF
:100DD00006F0D7EC0AF0374A382A37500001CA5DCE
:100DE000CB51800A356E3850800A3558D8B0FBEFA9
:100DF00006F0FDEF06F09BEF06F01200000E066E07
:100E0000010E056E56EF07F0030E046E8A0E036E98
:100E1000560EE82EFED7032EFCD7042EFAD7D89014
:100E20000534D96E0634DA6E800ED926000EDA2229
:100E3000DE50DE10D8A41FEF07F021EF07F025EFFA
:100E400007F040EC0BF054EF07F0D8900534D96E62
:100E50000634DA6E800ED926000EDA22DE04DE10A9
:100E6000D8A435EF07F037EF07F03BEF07F031EC90
:100E70000BF054EF07F0D8900534D96E0634DA6ED3
:100E8000800ED926000EDA22020EDE18DE10D8A45B
:100E90004CEF07F04EEF07F052EF07F022EC0BF0AB
:100EA00054EF07F013EC0BF0054A062A0550000139
:100EB000CA5DCB51800A036E0650800A0358D8B031
:100EC00064EF07F066EF07F004EF07F0120020EE82
:100ED00033F0070EDE6AE806FDE20001AAA173EF17
:100EE00007F075EF07F085EF07F0B2513326B351E5
:100EF0003422B4513522B5513622B6513722B7517A
:100F00003822B8513922B9513A22D890B237B33782
:100F1000B437B537B637B737B837B937D890B133F4
:100F2000B033AF33AE33AD33AC33AB33AA33AA51A6
:100F3000AB11AC11AD11AE11AF11B011B111D8A4FC
:100F4000A4EF07F0A6EF07F06DEF07F033C0AAF0AB
:100F500034C0ABF035C0ACF036C0ADF037C0AEF049
:100F600038C0AFF039C0B0F03AC0B1F0120020EE96
:100F700011F0070EDE6AE806FDE201A0C2EF07F0FD
:100F8000C4EF07F0D4EF07F0095011260A501222DF
:100F90000B5013220C5014220D5015220E50162205
:100FA0000F50172210501822D89009360A360B36E7
:100FB0000C360D360E360F361036D8900832073202
:100FC000063205320432033202320132015002107D
:100FD000031004100510061007100810D8A4F3EF32
:100FE00007F0F5EF07F0BDEF07F011C001F012C0F8
:100FF00002F013C003F014C004F015C005F016C0D1
:1010000006F017C007F018C008F012000600D9CF8C
:101010002DF0DACF2EF0F6CF2FF0F7CF30F0F8CF5B
:1010200031F0F5CF32F09EAA18EF08F01AEF08F071
:1010300039EF08F09E9A020EAE18D8A422EF08F0FD
:1010400024EF08F02DEF08F0000E0001CB6F010E29
:10105000CA6F7AEC04F039EF08F0AE04D8A433EF8D
:1010600008F035EF08F039EF08F0000E406E010E81
:101070003F6E32C0F5FF31C0F8FF30C0F7FF2FC020
:10108000F6FF2EC0DAFF2DC0D9FF4D921100D750C8
:101090003E6E3D6AD6503D240001C26F000E3E20D8
:1010A000C36FC2C033F0C3C034F099EC0AF04FEC08
:1010B0000BF0540E346E060E356EF5EC09F0B7ECFD
:1010C00005F0030E3B140001C46FC56BD890CA3500
:1010D000D96ECB35DA6E800ED926000EDA22C4C066
:1010E000DEFFC5C0DDFF060E3E6E130E3D6EAE0E7A
:1010F000E82EFED73D2EFCD73E2EFAD71200D75051
:10110000246E236AD6502324256E000E2420266EDA
:1011100025C001F026C002F0B0EC0AF05BEC0BF049
:10112000540E026E060E036E49EC0AF027EC06F030
:10113000030E1914276E286AD8900001CA35D96E9B
:10114000CB35DA6E800ED926000EDA2227C0DEFFFC
:1011500028C0DDFF060E246E130E236EAE0EE82EA1
:10116000FED7232EFCD7242EFAD712008D908D9215
:10117000140E356E7A0EE82EFED7352EFCD7030EF0
:10118000836E8D828D92070E356E7D0EE82EFED712
:10119000352EFCD700F08D828D92420EE82EFED7C0
:1011A00000D08D828D92420EE82EFED700D0020E26
:1011B000836E8D828D92380E67EC0BF0060E67EC15
:1011C0000BF00C0E67EC0BF04FEC0BF01200F80E6E
:1011D000F66E160EF76E000EF86E0900F5CFCAF027
:1011E0000900F5CFCBF0F60EF66E160EF76E000E78
:1011F000F86E0900F5CF4BF00900F5CF4CF000EE8A
:1012000080F02A0EEE6AE806FDE100EE3FF00C0EDB
:10121000EE6AE806FDE14D904D92000EF86E060E66
:10122000F76E0001C7EF0AF04FEC0BF0110E346EB1
:10123000060E356EF5EC09F02AEF09F0000E0001FC
:10124000CB6F010ECA6F820E366EDE0EE82EFED711
:10125000362EFCD73F044010D8A431EF09F033EF0D
:1012600009F01EEF09F04FEC0BF0000E406E000E7F
:101270003F6E12005BEC0BF0110E026E060E036E59
:1012800049EC0AF050EF09F0000E0001CB6F010E9F
:10129000CA6F820E046EDE0EE82EFED7042EFCD737
:1012A0003F044010D8A457EF09F059EF09F044EF7C
:1012B00009F05BEC0BF0000E406E000E3F6E12006A
:1012C000DF0E926E000E936E9468000E956E0C0EFB
:1012D000966E630ED36ED08E9D8A9F8AC00EF26E7C
:1012E000C30ED56E010EC26E0E0EC16E940EC06E90
:1012F000240EAC6E900EAB6E000EB86E190EAF6E73
:101300001200818E818C818A81804FEC0BF04B0E14
:10131000346E060E356EF5EC09F0060E376E130EC0
:10132000366EAE0EE82EFED7362EFCD7372EFAD705
:101330004FEC0BF0819E819C819A81901200818EEE
:10134000818C818A81805BEC0BF04B0E026E060E65
:10135000036E49EC0AF0060E056E130E046EAE0E17
:10136000E82EFED7042EFCD7052EFAD75BEC0BF047
:10137000819E819C819A81901200818E818C4FEC9C
:101380000BF05C0E346E060E356EF5EC09F0060EB1
:10139000386E130E376EAE0EE82EFED7372EFCD702
:1013A000382EFAD74FEC0BF0819E819C14EC09F09B
:1013B0001200818E818C818A81804FEC0BF03E0E71
:1013C000346E060E356EF5EC09F00B0E376E260EF8
:1013D000366E5E0EE82EFED7362EFCD7372EFAD7A5
:1013E000819E819C819A819012008D8002EF0AF08B
:1013F00034C0F6FF35C0F7FF0800F55067EC0BF07E
:10140000344A352A34C0F6FF35C0F7FF0800F550DE
:101410000009D8A40EEF0AF010EF0AF0F8EF09F077
:101420001200818E818C5BEC0BF05C0E026E060E5E
:10143000036E49EC0AF0060E066E130E056EAE0E34
:10144000E82EFED7052EFCD7062EFAD75BEC0BF064
:10145000819E819C3AEC09F01200818E818C818AF8
:1014600081805BEC0BF03E0E026E060E036E49ECC3
:101470000AF00B0E056E260E046E5E0EE82EFED7E9
:10148000042EFCD7052EFAD7819E819C819A8190EB
:1014900012008D8056EF0AF002C0F6FF03C0F7FF7E
:1014A0000800F55071EC0BF0024A032A02C0F6FF67
:1014B00003C0F7FF0800F5500009D8A462EF0AF056
:1014C00064EF0AF04CEF0AF01200D8903534D96E70
:1014D0003634DA6E800ED926000EDA223350DE184A
:1014E00009E13450DE18D8B478EF0AF07AEF0AF048
:1014F0007DEF0AF0000E7EEF0AF0010E1200D89088
:101500000334D96E0434DA6E800ED926000EDA2246
:101510000150DE1809E10250DE18D8B492EF0AF04B
:1015200094EF0AF097EF0AF0000E98EF0AF0010E20
:101530001200FF0E356EFF0E366E33C037F034C02A
:1015400038F0355037263650382237C043F038C08F
:1015500044F0456A466A476A486A496A4A6A12001C
:10156000FF0E036EFF0E046E01C005F002C006F010
:10157000035005260450062205C043F006C044F07F
:10158000456A466A476A486A496A4A6A120060ECD4
:1015900009F04FEC0BF0B6EC08F0000E816E000E77
:1015A000836E000E846E32EC03F007EF00F0818052
:1015B000020E346E860E336E990EE82EFED7332E51
:1015C000FCD7342EFAD700F081901200818A020EE7
:1015D000346E860E336E990EE82EFED7332EFCD76E
:1015E000342EFAD700F0819A1200818C020E346EEC
:1015F000860E336E990EE82EFED7332EFCD7342E8E
:10160000FAD700F0819C1200818E020E346E860E95
:10161000336E990EE82EFED7332EFCD7342EFAD730
:1016200000F0819E12008180020E026E860E016E15
:10163000990EE82EFED7012EFCD7022EFAD700F025
:1016400081901200818A020E026E860E016E990E42
:10165000E82EFED7012EFCD7022EFAD700F0819A91
:101660001200818C020E026E860E016E990EE82E1B
:10167000FED7012EFCD7022EFAD700F0819C120073
:10168000818E020E026E860E016E990EE82EFED736
:10169000012EFCD7022EFAD700F0819E12008D9009
:1016A000010E67EC0BF0030E346E980EE82EFED799
:1016B000342EFCD712008D90010E71EC0BF0030E4E
:1016C000026E980EE82EFED7022EFCD71200336E63
:1016D000C80E00D0E82EFDD733C083FF8D828D92D7
:1016E0001200016EC80E00D0E82EFDD701C083FFA6
:0A16F0008D828D92120001000100AE
:020000040020DA
:08000000FFFFFFFFFFFFFFFF00
:020000040030CA
:0E000000FF081F1EFF8181FF0FC00FE00F40A1
:00000001FF
